{
  "_format": "hh-sol-artifact-1",
  "contractName": "Storage",
  "sourceName": "contracts/Storage.sol",
  "abi": [
    {
      "inputs": [],
      "name": "get",
      "outputs": [
        {
          "internalType": "bytes",
          "name": "",
          "type": "bytes"
        }
      ],
      "stateMutability": "view",
      "type": "function"
    },
    {
      "inputs": [
        {
          "internalType": "bytes",
          "name": "data",
          "type": "bytes"
        }
      ],
      "name": "put",
      "outputs": [],
      "stateMutability": "nonpayable",
      "type": "function"
    }
  ],
  "bytecode": "0x608060405234801561001057600080fd5b50610659806100206000396000f3fe608060405234801561001057600080fd5b50600436106100365760003560e01c80636d4ce63c1461003b57806394f4714614610059575b600080fd5b610043610075565b6040516100509190610225565b60405180910390f35b610073600480360381019061006e91906102b6565b610143565b005b60606000803373ffffffffffffffffffffffffffffffffffffffff1673ffffffffffffffffffffffffffffffffffffffff16815260200190815260200160002080546100c090610332565b80601f01602080910402602001604051908101604052809291908181526020018280546100ec90610332565b80156101395780601f1061010e57610100808354040283529160200191610139565b820191906000526020600020905b81548152906001019060200180831161011c57829003601f168201915b5050505050905090565b81816000803373ffffffffffffffffffffffffffffffffffffffff1673ffffffffffffffffffffffffffffffffffffffff1681526020019081526020016000209182610190929190610553565b505050565b600081519050919050565b600082825260208201905092915050565b60005b838110156101cf5780820151818401526020810190506101b4565b60008484015250505050565b6000601f19601f8301169050919050565b60006101f782610195565b61020181856101a0565b93506102118185602086016101b1565b61021a816101db565b840191505092915050565b6000602082019050818103600083015261023f81846101ec565b905092915050565b600080fd5b600080fd5b600080fd5b600080fd5b600080fd5b60008083601f84011261027657610275610251565b5b8235905067ffffffffffffffff81111561029357610292610256565b5b6020830191508360018202830111156102af576102ae61025b565b5b9250929050565b600080602083850312156102cd576102cc610247565b5b600083013567ffffffffffffffff8111156102eb576102ea61024c565b5b6102f785828601610260565b92509250509250929050565b7f4e487b7100000000000000000000000000000000000000000000000000000000600052602260045260246000fd5b6000600282049050600182168061034a57607f821691505b60208210810361035d5761035c610303565b5b50919050565b600082905092915050565b7f4e487b7100000000000000000000000000000000000000000000000000000000600052604160045260246000fd5b60008190508160005260206000209050919050565b60006020601f8301049050919050565b600082821b905092915050565b6000600883026103ff7fffffffffffffffffffffffffffffffffffffffffffffffffffffffffffffffff826103c2565b61040986836103c2565b95508019841693508086168417925050509392505050565b6000819050919050565b6000819050919050565b600061045061044b61044684610421565b61042b565b610421565b9050919050565b6000819050919050565b61046a83610435565b61047e61047682610457565b8484546103cf565b825550505050565b600090565b610493610486565b61049e818484610461565b505050565b5b818110156104c2576104b760008261048b565b6001810190506104a4565b5050565b601f821115610507576104d88161039d565b6104e1846103b2565b810160208510156104f0578190505b6105046104fc856103b2565b8301826104a3565b50505b505050565b600082821c905092915050565b600061052a6000198460080261050c565b1980831691505092915050565b60006105438383610519565b9150826002028217905092915050565b61055d8383610363565b67ffffffffffffffff8111156105765761057561036e565b5b6105808254610332565b61058b8282856104c6565b6000601f8311600181146105ba57600084156105a8578287013590505b6105b28582610537565b86555061061a565b601f1984166105c88661039d565b60005b828110156105f0578489013582556001820191506020850194506020810190506105cb565b8683101561060d5784890135610609601f891682610519565b8355505b6001600288020188555050505b5050505050505056fea26469706673582212207e2d464974847427d22f417530c57c20afb90f0837e5805517b54e5c5426195d64736f6c63430008110033",
  "linkReferences": {},
  "deployedLinkReferences": {}
}